:020000040800F2
:1000000010A200204501000837140008D71200088C
:1000100035140008330200088117000800000000B2
:10002000000000000000000000000000FD150008B6
:10003000790200080000000021150008FF150008E3
:100040005F0100085F0100085F0100085F01000810
:100050005F0100085F0100085F0100085F01000800
:100060005F0100085F0100085F0100085F010008F0
:100070005F0100085F0100085F0100085F010008E0
:100080005F0100085F0100085F0100085F010008D0
:100090005F0100085F0100085F0100085F010008C0
:1000A0005F0100085F0100085F0100085F010008B0
:1000B0005F0100085F0100085F0100085F010008A0
:1000C0005F0100085F0100085F0100085F01000890
:1000D0005F0100085F0100085F0100085F01000880
:1000E0005F0100085F0100085F0100085F01000870
:1000F0005F0100085F0100085F0100085F01000860
:100100005F0100085F0100085F0100085F0100084F
:100110005F0100085F0100085F0100085F0100083F
:100120005F0100085F0100085F0100085F0100082F
:10013000DFF80CD000F040F800480047B51900087F
:1001400010A200200648804706480047FEE7FEE769
:10015000FEE7FEE7FEE7FEE7FEE7FEE7FEE7FEE777
:100160006116000831010008D2B201E000F8012B4D
:10017000491EFBD270470022F6E710B513460A4627
:1001800004461946FFF7F0FF204610BD30B50B4678
:10019000014600202022012409E021FA02F59D42B7
:1001A00005D303FA02F5491B04FA02F52844151E8B
:1001B000A2F10102F1DC30BD064C074D06E0E0681B
:1001C00040F0010394E8070098471034AC42F6D39E
:1001D000FFF7B2FF042E0008242E000870B58C181B
:1001E00010F8015B15F0070301D110F8013B2A114B
:1001F00006D110F8012B03E010F8016B01F8016B38
:100200005B1EF9D12B0705D40023521E0DD401F833
:10021000013BFAE710F8013BCB1A921C03E013F8FC
:10022000015B01F8015B521EF9D5A142D8D3002031
:1002300070BDFEE710B5094C00220421204600F0F5
:1002400028FB00221021204600F023FB012202217E
:10025000204600F01EFB002010BD000000080140F9
:1002600001B54FF47A7301226946024800F0AAFEF4
:1002700008BD00005C01002070472DE9F041192500
:10028000C826242000F0F0F800270024FF2000F00A
:1002900005F9641CA4B2AC42F8D37F1CBFB2B742CC
:1002A000F3D3262000F0E0F800270024FF2000F020
:1002B000F5F8641CA4B2AC42F8D37F1CBFB2B742BD
:1002C000F3D3BDE8F04100F033B92DE9F0418046A9
:1002D0001926C827242000F0C7F80025002405FBB4
:1002E000064018F8000000F0D9F8641CA4B2B4422B
:1002F000F5D36D1CADB2BD42F0D3BDE8F04100F0C6
:1003000017B9000010B500F091F800F05DF8122068
:1003100000F0AAF800F058F8012000F0A5F8C72076
:1003200000F0BCF8002000F0B9F8012000F0B6F8A9
:10033000112000F099F8012000F0B0F8442000F0FE
:1003400093F80024204600F0A9F8182000F0A6F841
:10035000452000F089F8C72000F0A0F8204600F002
:100360009DF8204600F09AF8204600F097F83C20CF
:1003700000F07AF8012000F091F8182000F074F8ED
:10038000802000F08BF8222000F06EF8B12000F001
:1003900085F8202000F068F84E2000F065F820462F
:1003A00000F07CF84F2000F05FF8C72000F076F8EE
:1003B000204600F073F800F007F8BDE8104001484F
:1003C00000F086B81000002010B509A001F0DAF99D
:1003D0000D4C02E00A2000F041F90821204600F00F
:1003E0004BFA0128F6D0BDE8104008A001F0CAB9C8
:1003F00044656275673A20652D50617065722062B0
:100400007573790D0A0000000008014044656275AB
:10041000673A20652D50617065722062757379208E
:1004200072656C656173650D0A00000010B50D4CB6
:1004300001220221204600F02CFAC82000F00EF91B
:1004400000220221204600F024FA022000F006F9E2
:1004500001220221204600F01CFABDE81040C8200D
:1004600000F0FCB80008014070B50B4C05460022B6
:100470000421204600F00DFA00221021204600F051
:1004800008FA2846FFF7ECFE2046BDE8704001223E
:10049000102100F0FEB900000008014070B50B4CBF
:1004A000054601220421204600F0F3F90022102124
:1004B000204600F0EEF92846FFF7D2FE2046BDE8C0
:1004C00070400122102100F0E4B900000008014052
:1004D00070B504463220FFF7C7FF0025605DFFF7C7
:1004E000DDFF6D1CEDB2992DF8D3FFF76DFF3F20B6
:1004F000FFF7BAFF14F8990FFFF7D0FF0320FFF7BB
:10050000B3FF6078FFF7CAFF0420FFF7ADFFA078C4
:10051000FFF7C4FFE078FFF7C1FF2079FFF7BEFFC8
:100520002C20FFF7A1FF6079BDE87040FFF7B6BF50
:1005300010B52220FFF798FFC720FFF7AFFF20205C
:10054000FFF792FFBDE81040FFF73EBF38B51EA091
:1005500001F018F9FFF76EFE22A001F013F9FFF782
:10056000D1FEFFF78AFE4FF4FA7000F077F841F2FF
:10057000883001F041FA04001FD021A001F002F9F7
:10058000FF20C822009000231146204600F0A4FF5F
:1005900020A001F0F7F8204600F0BCFFFF2000F09B
:1005A0004BFF224800F080FF2046FFF78EFE40F60A
:1005B000B83000F053F8002038BD1DA001F0E2F87B
:1005C0004FF0FF3038BD00004550445F31696E3553
:1005D000345F56325F746573742044656D6F0D0A25
:1005E00000000000652D506170657220496E6974CD
:1005F00020616E6420436C6561722E2E2E0D0A0000
:100600005061696E745F4E6577496D6167650D0A6B
:100610000000000073686F7720696D616765206670
:100620006F722061727261790D0A00007C1A0008F5
:100630004661696C656420746F206170706C79200C
:10064000666F7220626C61636B206D656D6F72798D
:100650002E2E2E0D0A00000072B6FEE770B504467D
:1006600000F01CF90546601C02D0044800780444E0
:1006700000F014F9401BA042FAD370BD0000002026
:100680002DE9F84FDFF8C891002409F1040A0AF1B6
:10069000040B23460F270BF1040ED1E00125A540E2
:1006A00006EA0502AA4276D1DFF8A8C14E68A6EB99
:1006B0000C0866452BD00DDC032E34D005DC36B398
:1006C000012E19D0022E2FD11BE0112E16D0122E82
:1006D0002AD119E0B8F5881F19D006DCB8F5803F9B
:1006E00015D0B8F5801F1FD111E0B8F5001F0ED04E
:1006F000B8F5041F18D10AE0CB6815E0CB681B1DC4
:1007000012E0CB6808330FE0CB680C330CE08B6849
:100710002BB1012B4FF0080303D0456104E0042303
:1007200002E0056100E00023FF2A01D8064601E04F
:1007300000F104064FEA840501D9A5F12005D6F899
:10074000008007FA05FC28EA0C0803FA05F548EAD8
:100750000508C6F800804D68ED0070D53E4DAE69C5
:1007600046F00106AE61AD6924F0030605F001050F
:1007700000953A4D06EB050CDCF80850A607360F3D
:1007800007FA06F825EA0805DFF8D480404503D1CA
:100790004FF0000825E052E0DFF8C880404502D164
:1007A0004FF001081DE0DFF8C080404502D14FF056
:1007B000020816E0DFF8B480404502D14FF003088C
:1007C0000FE0DFF8AC80404502D14FF0040808E0AC
:1007D000DFF8A080404502D14FF0050801E04FF05E
:1007E000060808FA06F848EA0508CCF808804D68BB
:1007F000D9F80060ED034D4601D5164300E096435D
:100800002E604D68DAF80060AD03554601D51643F9
:1008100000E096432E604D68DBF80060ED025D4617
:1008200001D5164300E096432E604D68DEF8006067
:10083000AD02754601D5164300E096432E60641C58
:100840000A681646E2407FF429AFBDE8F88F000041
:10085000000401400000111000100240000001409F
:1008600000080140000C014000100140001401404C
:1008700000180140001C01408068084000D00120A1
:100880007047C26821EA02030A4043EA024101615B
:1008900070470AB1016170470904FBE701488068AD
:1008A000704700000000002002488168027811446F
:1008B0008160704700000020074810B5016841F0D2
:1008C00010010160032000F067F80F2000F006F827
:1008D00000F024F8002010BD0020024070B50D4D3E
:1008E00004464FF47A712878B1FBF0F00A490968A0
:1008F000B1FBF0F000F019FC48B9102C07D200222F
:100900002146501E00F028F800206C6070BD0120C8
:1009100070BD0000000000200C0000200C4808B54D
:10092000816941F001018161816901F0010100915A
:10093000C16941F08051C161C06900F080500090F0
:100940000448416821F0E06141F00071416008BD58
:100950000010024000000140F0B40E4B1B680C4632
:10096000C3F30223C3F10705042D00D90425191D83
:10097000072901D2002300E0DB1E012606FA05F15B
:10098000491E214099409E40761E16403143F0BCDE
:1009900000F008BF0CED00E0064900F0070208680F
:1009A0004FF6FF03184040EA0220034A1043086054
:1009B000704700000CED00E00000FA052DE9F0475B
:1009C0000F46050061D0434E306800F00700B84282
:1009D00009D2306820F0070038433060306800F0FA
:1009E0000700B84251D128683B4C810712D5400717
:1009F00003D5606840F4E06060602878000703D5A4
:100A0000606840F4605060606068A96820F0F000A1
:100A1000084360602878C00728D06868012810D093
:100A20002168022810D0890700292EDA616821F098
:100A3000030101436160FFF731FF804641F28839CD
:100A40000DE021688903EFE78901EDE7FFF726FF55
:100A5000A0EB0801494502D90320BDE8F087606892
:100A6000696800F00C00B0EB810FEFD1306800F046
:100A70000700B8420BD9306820F0070038433060D7
:100A8000306800F00700B84201D00120E5E728787F
:100A9000400705D56068E96820F4E06008436060BD
:100AA0002878000706D56068296920F4605040EA7C
:100AB000C100606000F038F86168084AC1F30311B2
:100AC000515CC8400649086006480068FFF706FF09
:100AD0000020C2E70020024000100240641A000813
:100AE0000C00002004000020044805490068496803
:100AF000044AC1F30221515CC84070470C00002039
:100B000000100240741A000804480549006849684A
:100B1000044AC1F3C221515CC84070470C00002058
:100B200000100240741A000812A185B00FC98DE8A8
:100B30000F0014A0144A006804905168134801F093
:100B40000C03042B10D0082B0ED1C1F38343C9032F
:100B50001DF803000AD5516804AAC1F34041515C55
:100B60000A4A5043B0FBF1F005B0704708494843CA
:100B7000FAE7000002030405060708090A0B0C0D3A
:100B80000E0F1010010200000010024000127A0047
:100B900000093D002DE9F84F040070D02078C04DC9
:100BA000C00749D06868C0F38100012807D0686891
:100BB000C0F38100022809D16868C00306D52868FF
:100BC000800339D560680028E7D035E06068B0F56B
:100BD000803F0BD010B1B0F5A02F11D0286820F4C1
:100BE00080302860286820F4802002E0286840F4E3
:100BF00080302860606890B1FFF750FE06460AE03A
:100C0000286840F480202860F0E700BFFFF746FE28
:100C1000801B642873D828688003F7D50CE0FFF7A1
:100C20003DFE064605E000BFFFF738FE801B642846
:100C3000F0D828688003F7D420789A4E80074FF0C8
:100C400001094FF0000839D5686810F00C0F07D083
:100C50006868C0F38100022809D16868C00306D41F
:100C60002868800714D52069012808D110E0206980
:100C7000B0B1C6F80090FFF711FE074605E00AE1A3
:100C8000FFF70CFEC01B0228C4D828688007F7D5E0
:100C90002868616920F0F80040EAC10028600DE092
:100CA000C6F80080FFF7FAFD074604E0FFF7F6FDFF
:100CB000C01B022823D828688007F7D420780007B3
:100CC0002CD57948A169D9B1C0F80090FFF7E6FDAD
:100CD000074604E0FFF7E2FDC01B02280FD8686A50
:100CE0008007F7D571484FF4FA510068B0FBF1F076
:100CF000009000BF0098411E0091FAD20EE080E003
:100D0000C0F80080FFF7CAFD074604E0FFF7C6FD04
:100D1000C01B022875D8686A8007F7D4207840077E
:100D200060D5E8690027C00008D4E86940F0805029
:100D3000E861E869012700F0805000905C48016894
:100D4000C90513D40168834641F480710160FFF73F
:100D5000A5FD824606E000BFFFF7A0FDA0EB0A005C
:100D600064284ED8DBF80000C005F5D5E0680128FE
:100D70000AD008B1052813D0286A20F001002862A3
:100D8000286A20F0040002E0286A40F0010028628E
:100D9000E06841F2883B98B1FFF780FD82460BE0A6
:100DA000286A40F004002862EEE700BFFFF776FDF6
:100DB000A0EB0A0159455AD8286A8007F6D50CE0FD
:100DC000FFF76CFD824605E0FFF768FDA0EB0A0126
:100DD00059454CD8286A8007F6D41FB1E86920F03D
:100DE0008050E861E06988B36968C1F38101022934
:100DF00044D00228C6F8608004D0FFF74FFD0446B7
:100E000038E034E0FFF74AFD074604E0FFF746FD0F
:100E1000C01B02282BD828688001F7D4206AB0F5BF
:100E2000803F05D16868A16820F4003008436860FD
:100E3000D4E908010843696821F474110843686023
:100E4000C6F86090FFF72AFD044606E025E000BFE3
:100E5000FFF724FD001B022809D828688001F7D578
:100E60001BE000BFFFF71AFD001B022802D9032078
:100E7000BDE8F88F28688001F4D40EE00128F7D08F
:100E80006868226A00F48031914204D1616A00F4FA
:100E90007010884201D00120EAE70020E8E7000056
:100EA0000010024000004242800442420C00002038
:100EB0000070004070B5040009D0606A002540B1A0
:100EC00025616561A56294F8510040B10CE00120F4
:100ED00070BD6068B0F5827FF4D0E561F2E784F818
:100EE0005050204600F040F8022084F8510020685D
:100EF000016821F040010160A088218900F482701E
:100F000001F404410843A18901F400610843217CF4
:100F100001F002010843217D01F001010843218B0A
:100F200001F400710843217F01F03801084394F86F
:100F3000201001F080010843218D01F40051084385
:100F400021680860A069042101EA10402168486016
:100F50002068C16921F40061C1616565012084F8E0
:100F60005100002070BD000000B585B00021009147
:100F700001910291039100680F4988421AD10F48EC
:100F8000816941F480518161816901F4805104914A
:100F9000816941F0040181618069694600F00400C3
:100FA0000490A020009002200190032003900448A8
:100FB000FFF766FB05B000BD0030014000100240A5
:100FC000000801402DE9F84F044690F85000002732
:100FD0001D461646894601280DD04FF0010B84F8B6
:100FE00050B0FFF75BFC804694F85100BA460128E8
:100FF00004D0022793E00220BDE8F88FB9F1000F7A
:1010000073D0002E71D0032084F85100C4F854A08E
:10101000C4F83090A686E686C4F838A0A4F83CA0B0
:10102000A4F83EA0C4F844A0C4F840A0A068B0F55D
:10103000004F09D12068016821F04001016020685B
:10104000016841F48041016020680168490603D4C9
:10105000016841F040010160E068B0F5006F606830
:1010600003D030B3012E24D041E008B1012E1CD1B1
:10107000206B21680088C86006E0206881688907C5
:1010800009D5216B0988C160206B801C2063E08E2C
:10109000401EE08609E0FFF701FCA0EB0800A84233
:1010A00002D3681C01D031E07DB3E08E0028E4D18A
:1010B00020E0206B21680078087306E020688168D2
:1010C000890709D5216B09780173206B401C2063C7
:1010D000E08E401EE0860AE0FFF7E0FBA0EB080090
:1010E000A84203D3681C02D010E017E06DB1E08E77
:1010F0000028E3D142462946204600F012FA08B102
:1011000020206065A06818B106E0FFE7032706E02D
:101110002068C16880680090606D00B1012784F884
:1011200051B084F850A0384666E710B5401EB0F1C3
:10113000807F01D3012010BD4FF0E02460610F21BA
:10114000601700F02FFB0020A06107202061002025
:1011500010BD70B5040004D094F83D00002510B116
:1011600006E0012070BD84F83C50204600F022F8D3
:10117000242084F83D002068C16821F40051C1603A
:10118000204600F06FFA2068016921F49041016166
:101190002068416921F02A0141612068C16841F459
:1011A0000051C1602564202084F83D0084F83E0091
:1011B000002070BD30B585B00024009401940294E5
:1011C000039400681449884224D11448816941F489
:1011D00080418161816901F480410491816941F01C
:1011E0000401816180690E4D00F0040004904FF409
:1011F0000070009002200190032003906946284669
:10120000FFF73EFA2815CDE9000469462846029406
:10121000FFF736FA05B030BD00380140001002403B
:10122000000801402DE9F843044690F83D001F46B0
:1012300016460D4620284CD1C5B1BEB194F83C00ED
:10124000012846D0012084F83C004FF00008C4F883
:101250004080212084F83D00FFF720FBA6848146D2
:10126000E684A068B0F5805F03D004E00120BDE80B
:10127000F883206928B12E465FF0000584F83C8091
:101280000EE00026FAE78021204600F047FAA0B9D8
:10129000AEB116F8010B21684860E08C401EE08476
:1012A000E08C4B464FF0000200970028EBD14FF046
:1012B0004001204600F032FA30B10320D7E735F87C
:1012C000020BC0F30800E6E7202084F83D00002070
:1012D000CDE70220CBE7FEE72DE9F04786B00025F9
:1012E00030480095019502950395816941F04001D0
:1012F0008161816901F040010491816941F010012F
:101300008161816901F010010491816941F004015A
:101310008161816901F004010491816941F0080152
:1013200081618069DFF8808000F00800049000226D
:1013300020214046FFF7ADFADFF870900022162119
:101340004846FFF7A6FADFF868A0002220215046A1
:10135000FFF79FFA2027012602240097CDE90164B8
:10136000694640460394FFF78BF91620CDE9000645
:10137000CDE9025469464846FFF782F90820CDE9D5
:101380000005694648460295FFF77AF90097CDE9CE
:101390000164694650460394FFF772F906B0BDE850
:1013A000F0870000001002400018014000080140D2
:1013B000000C0140104810B50E4901604FF48271D5
:1013C000416000218160C1604FF400720161C0E999
:1013D00005122822C0E90721416281620A21C16207
:1013E000FFF768FD002803D0BDE81040FFF734B9CF
:1013F00010BD0000003001405C0100200C4810B519
:101400000A4901604FF4E1314160002181600C2202
:10141000C160C0E904128161C161FFF79AFE002832
:1014200003D0BDE81040FFF717B910BD00380140E8
:10143000B4010020FEE7FEE730B51A49CA8A022A45
:1014400008D0042A06D0072A18D140EA001000224A
:10145000C3B222E00022C3B20DE0002006E000BFCC
:1014600002FB04040D68401C80B22B554C8A844258
:10147000F6D8521C92B2888A9042EED830BD002035
:1014800006E000BF02FB04040D68401C80B22B552F
:101490004C8A8442F6D8521C92B2888A9042EED886
:1014A00030BD0000F801002070B50022094B0DE0AE
:1014B000002106E002FB04141E68055D491C355539
:1014C00089B25C8A8C42F5D8521C92B2998A9142B8
:1014D000EED870BDF801002070B50D4C049E0025BB
:1014E000206021816281A6810220E0824E074FEABE
:1014F000D10000D0401C6082A282E381258223B10A
:10150000B42B02D0A280E18070BDA180E28070BDCA
:10151000F80100200149086070470000F801002030
:10152000704738B50B46009204460022802100F037
:1015300009F8002804D0606D40F0200060650320A9
:1015400038BD00002DE9F8431E4691468846044602
:10155000089DFFF7A3F9401B351AFFF79FF90746CF
:1015600025480068C0F3CB30684338E0701C37D0A2
:10157000FFF794F9C01BA84203D215B1009860B3DD
:101580002CE02068416821F0E00141606068B0F51E
:10159000827F0BD1A068B0F5004F02D0B0F5806F0C
:1015A00004D12068016821F040010160A06AB0F513
:1015B000005F09D12068016821F4005101602068B2
:1015C000016841F400510160012084F851000020BD
:1015D00084F850000320BDE8F8830025401E0090E9
:1015E0002068816838EA010004D000214945BDD156
:1015F0000020F0E70121F9E70C0000207047FFF719
:1016000053B930B58FB028216846FEF7B4FD1421D8
:101610000AA8FEF7B0FD01210804CDE9001000245E
:10162000029402250491CDE907504FF4E01009908F
:101630006846FFF7AFFA08B172B6FEE70F20CDE9B2
:101640000A054FF48060CDE90C4002210AA80E94EF
:10165000FFF7B4F9002801D072B6FEE70FB030BD35
:101660007047000070B5044600680169E26821F423
:101670004051114301612169A06808436169084331
:101680002168CA6841F20C639A430243CA60206829
:101690004169A26921F44071114341611E492068EA
:1016A000884202D1FFF730FA01E0FFF71DFA00EBA4
:1016B000C00101EB0012606864218000B2FBF0F30E
:1016C000B3FBF1F36FF018067343B2FBF0F5B2FB16
:1016D000F0F605EB8305322303EB0515B5FBF1F5B9
:1016E000B6FBF1F605F0F00505EB0615B2FBF0F6DA
:1016F000B2FBF0F0B0FBF1F06FF01802504306EBD4
:10170000800003EB0010B0FBF1F0216800F00F0047
:101710002844886070BD0000003801402DE9F04188
:10172000984617460E460446069D1DE0681C1BD0D1
:101730002DB1FFF7B3F8A0EB0800A84214D9206838
:10174000C16821F4D071C1602068416921F00101B4
:101750004161202084F83D0084F83E00002084F898
:101760003C000320BDE8F0812068006836EA0000F4
:1017700004D00020B842D9D00020F3E70120F9E7D7
:10178000FEE700000FB4054B10B503A9044A029808
:1017900000F028F810BC5DF814FB00009D1900084B
:1017A000500100200907090E002804DB00F1E020A9
:1017B00080F80014704700F00F0000F1E02080F87E
:1017C000141D704702E008C8121F08C1002AFAD190
:1017D00070477047002001E001C1121F002AFBD1B1
:1017E000704700002DE9FF4F8BB09A460F46054623
:1017F000002606E025280BD052460D9990476D1C17
:10180000761C28780028F5D10FB03046BDE8F08F5F
:101810000024A0460122604900E0044315F8013F7E
:10182000203B02FA03F00842F7D128782E2817D17E
:1018300015F8010F44F004042A280ED06FF02F028F
:101840002878A0F1300109290AD808EB880102EBB9
:10185000410100EB01086D1CF2E757F8048B6D1C89
:10186000287869283ED006DC0028CDD063280BD02C
:10187000642804D136E0732810D075284BD0524626
:101880000D999047761C85E017F8040B8DF8000041
:1018900000208DF80100E946012003E057F8049B81
:1018A0004FF0FF3061074FF0000401D40AE0641CE0
:1018B00044450DDA8442FADB19F804100029F6D108
:1018C00006E0641C8442FCDB19F804100029F8D1FE
:1018D000264404E019F8010B52460D999047641E06
:1018E000F8D257E001CF4FF00A0B002802DA40424D
:1018F0002D2102E0210504D52B218DF82410012192
:1019000003E0E10705D02021F7E70DF12009089158
:101910000CE00021F9E701CF4FF00A0BF9E7594637
:10192000FEF734FC01F1300209F8012D0028F6D150
:10193000ADEB090000F1200B600701D44FF0010866
:10194000D84502DDA8EB0B0000E000208046002413
:1019500006E009A85246005D0D999047641C761C6C
:1019600008988442F5DB04E0302052460D999047F8
:10197000761CB8F10001A8F10108F5DC05E019F8C2
:10198000010B52460D999047761CBBF10001ABF15B
:10199000010BF4DC6D1C34E70928010013B54FF688
:1019A000FF73012269460248FFF73CFC00981CBD0A
:1019B000B4010020FEF780FFFFF723FEFFF78CFC49
:1019C000FFF71CFDFFF7F6FCFEF7C0FD064C4FF4D9
:1019D000FA7520212046FEF754FF2846FEF73EFE0A
:1019E00002A0FFF7CFFEF4E7001801400A0D68657A
:1019F0006C6C6F210A0D0000F0B50B30154D20F016
:101A000007010024144A0FE003688B420BD38B427A
:101A100005D95E1A43184768C3E9006700E04368C8
:101A2000136002C004E0021D10680028ECD12046BB
:101A3000002802D1286808B10020F0BD064A0748F6
:101A40001060074A121A22F00702C0E900240120A0
:101A50002860D7E75801002054010020140200201C
:101A600010920020000000000000000001020304AA
:101A700006070809000000000102030424892092DF
:101A80004BAB6DFFFF2ADF55555DB76DD5DB75D6C6
:101A900095DD554EDB92629E4B54BDB2AB7BD52F8C
:101AA000EAADA6DAF76975DEBB526B0B336D24899C
:101AB00021284AD3AD7DEFEADBFAAAB5575AEADE10
:101AC000B5ECA5DAA94D9292249596AA5CE55FFF44
:101AD000E95BFAAAD5D55B32ABDEAF956E8D56FBCE
:101AE0004AB2C88A8B46A95BBF756FBEAADCF7AD48
:101AF000DB5A66E956AB54AAAA510926696D7B6D7B
:101B00006DF7FA96FD55675AFEE9EFBB5F4576A67D
:101B100055BB45649926A08AAA367BFC7BFEDABABF
:101B2000D513A488D6EAABAD895AAC3112459116CB
:101B300069A69BBDBF15FE4EAADFDAB26B6AAFAADB
:101B4000B4656DD698CAB455D32CB50AAFFDB56F40
:101B500062BEE2D5A90856E50B9724A4D222248BB5
:101B60002A0CD2D6A4B5FE4AFF3B52BF7454B2A988
:101B70003AE4489A532D4AA95444732D29428BD6EE
:101B800095FF44AB54CAA245226A2BB2A15ADE2962
:101B90001443530CAAA550A97F565F3AADD75215EE
:101BA000349AAA9088AD656389053049A52AB49016
:101BB00009BFAB6F8B68DBAB508242FA556C235583
:101BC0007D24EA4D2442954AC8865794FF75576D87
:101BD0005AAE5929552EB7A9B5AA5310A2929CAA5C
:101BE000AA36515BE35F96AA9AEAD10ACB7A91AA08
:101BF00046AF57108A08488288AA90412E996F52A2
:101C0000ABCEAEAAC82CDA442132B54A98494A5420
:101C1000AACC820A2897C8BF76D4E6F552AD4275A1
:101C2000359489DD6B45A02122046675641049AFA7
:101C3000D5BFEB33ADB954B59A825554B68C924B9F
:101C4000568AD990849942265FFFFFBACC5B52AB8B
:101C50004AA52DAA92ECB3492912420C6EB545292A
:101C600013BDFBDFEAF7494DAD6D52A4AA4F674C97
:101C70006484957387254A6AA0407F7FEBAFF6EDB9
:101C800064A567592AAB66B5AA1262510850D52DD2
:101C9000AA2A0BDFFF7E22AD57B2DABAAE84549B7C
:101CA0008FD64A9896A32B2AB295AF557FFBFF8D0E
:101CB0004222D9554D533BC92EE9292046525C8911
:101CC000A10A523E37EB7FBAA531D06C56A53A86B1
:101CD0006E95AEAEAE529346EABFE9ABF5DFFFBFFD
:101CE000FE931FFA3753759AB7A35E96A5215559EF
:101CF00032947FFE50D76DBFF7FFC8D5FCB0DA9E97
:101D00006D4AF96B6B55AA92A56D55F7FFABAA9773
:101D1000F5FFB7FE55E05F6DE59515A6958D55A9C4
:101D200068ADA6D5BDFFCCB56D7EBBFFFF0840D723
:101D3000B6BA7556555DB5B2292D64B275F77B6E8E
:101D400092AF7FFDFBFFE6301BD59695576AA52C19
:101D5000BB952496AD93BDDFB45FA5AFDFBFDFF9C0
:101D6000782D7E6ADA1BD6BF5684A95B295366CECE
:101D7000AE4BA2DEFBFFDFFFFE1817D3ED55ED7D66
:101D8000555AFB2488AAADB26AA328DA537DDDF543
:101D9000EFBF8C05FAB57657555F5EAD96CEAAEAD1
:101DA000A9AAB1964ADDBFEFFFFFEFE721BAB95B01
:101DB0005BFEEB2AEA512AAB2544540C2BAB2BEDEE
:101DC000BEFFBBFFF884DFCAFDAA8B5D5D570EA581
:101DD00049B55522A24A4856BEFFDDFFFFFC2A64E2
:101DE0002556EF7D7BAB69A0B2B4D525112129A77B
:101DF0005B6FB7FFFEFFBFB2B7FD5B73ADACB9BDA4
:101E000056129675A49490AA90ABBFFDDEDF77DFE3
:101E10009EDB6FEDBEEEFD1DAD91AAAB5EA24A4505
:101E20005442AD6BB7F7F7DFFEC175BABEDB77562C
:101E3000E6D72644A9A9759152210953FFFF7FFFD8
:101E4000FFFFF1AED7EB6DDDFBDB7A59AA54AD9AFB
:101E5000CB8958405555FFFAFBFBEBF8FEF577EFC1
:101E60006F5DBD5F44A546D4F967A54492B7FEF601
:101E7000BFFFFFBFFC4F7DBAF5BB6DDF6BAA983487
:101E8000AF2CAA112A4054AF7FFF7DBDFF7EF5AF76
:101E9000D55F6DD6E5DA15674951DB0F4A810A93A4
:101EA00057AFEFAFFFFDEE5EF56FB5FB7F3F776598
:101EB00011555A6CD60850425CF5FBF7FFBFFF7F07
:101EC00037BF75FF5D55D2B9315A94AAB75CA240AD
:101ED00001073F5FFBF7DFDFDFBAD7BF55F7AAAFD8
:101EE000AD8D42CAB59EEC491448F555FEDFFDFDA7
:101EF000FFF7D76DEAEFAEFDB0B672AC354AB5BDAF
:101F00000001030AAB5B7AFFF77BBFDBBB7FBF7BC4
:101F1000D7DFDB8A92C52AA6E8A0102169BDEFFFB2
:101F20002DFFFFFECFDD5BD5DD7AF6DD529671AC7D
:101F3000B7780000112C96B55BFF7FDFDFEF5FED18
:101F400076F7AEDBEFA8692D535B5011850292EB5B
:101F5000FBFDB5F77FFFEAB6B7DBBDFBBEB54BA611
:101F6000995CE7B287F008259DAD56FFBBFAFBF3FD
:101F70006BDD7ED6AEEBDB480ACCAA59A007F9454B
:101F80005454D77FDDFFFFDFD7B6D756FBEBBD6DCF
:101F90002B524492AFAC07EC1285AE7B5AFFBB7A52
:101FA000FDEBF7F5F75D7DD7B5A488AA4B5CC2477A
:101FB000F0805255D5AFAEFFD72297BADF5BBFA6F0
:101FC000A95A49531594332C07F6452AAAAB7777BB
:101FD000F500004CCF7AAEF6FBBEE7244944438AB5
:101FE000A20F89208A2AFDBDFBB4800007EBDFEB3E
:101FF0005B5CEB75952A6334EAB01F9D04454A5536
:102000008EBE8000404EFD6D7FFDEE6D5D54A518C7
:102010009215180F0EA1AA3296F3F8004A08075736
:10202000F6D5DF6BB6EAA2486AA56B381E1BA4245E
:10203000CD6A5EAA4500021AEB5BDF6BBEDB6FA9BF
:1020400027049114300E1F8292228B5B40002121C5
:102050001FFF6D77FDD3DFFB2490A4556E10101D7C
:10206000804112E56E0A5D04001EFFFFFAEEDCEA15
:102070005B92AA52889280001EA2ACA8193080BE42
:1020800000010FF6ACDFBB7B77ED29110A53B64098
:10209000603B11024BA2C828FF1014259B7BEAED80
:1020A000EFDDB5844CA1489280403D08B1409A00D4
:1020B000057F008296DBEF7F7736EEFD52A5144A4E
:1020C000ACA0603405182A4B04A3FF880256DD73C8
:1020D0005BBBFB675D491242AB5280005880050430
:1020E000A4437DBF005936B79FEFED5FBAEE244998
:1020F00015249600006312A0521025FEFFA104B61D
:10210000FEF97AB6EAFFB59564D296CAD000108976
:1021100024414017FFFF8856375F4F5DFBFFD5FE18
:1021200044164AA4A66001CE049124200BDEFF01D0
:1021300022F7CF77FEACD57EAB2551315354A002A8
:1021400011824801005FFF5F089A7A72B5DBF77F62
:10215000F7FD888A464D2B7E008A4522940225FF92
:10216000F93160FB9FFF7D5DF6DED6A2493164A99F
:102170003E8435001080001EFD04891BF8C5BFEFAA
:10218000E5BFF77F5A4914248D5E40452240004246
:102190004FFE102949FAF7DDF2BFEADB95A1254A87
:1021A000B552BC029A0814810862AD429427DE5EE3
:1021B000EF7EF6BF7DFB4A4910822ABF20210140F5
:1021C00008001558156197F3BFFBB5ABEBFE9625DC
:1021D00024CD688AAF1098400500400D604A989F52
:1021E000FE86EDD6FFFED7D520904426529B0248AE
:1021F00014A00004A5156ACC6BF7EBF77B2D577A7A
:10220000EA964B29910B0D8804020088000042B524
:10221000417FF556DB97DFFBEF5721142254684EC0
:10222000C0504000001201074A52BFEBFB7AECBAE3
:10223000DEDADA94C5AA21054762001400040044DE
:102240005B6B13FFED5F7D56FED76E6B9668232A9E
:10225000F543B08801200109216AA895BB776B5628
:10226000D797FBABBB41A79495FD25EC2028000038
:10227000200A97524FFFDDDDAB56EE6EFED61618E4
:10228000494BE848F682400200041530893FEFEEE2
:10229000B6DDFDF67BD5BB514524A0A520325020EC
:1022A0000040028ACA417EFFB7DB7F77906EEEBDA9
:1022B000155494350E941602400010004A6035D72C
:1022C000FFB5EFAC824477B7D7AA92428AB540CB2C
:1022D0004062400229000B0F7FB6FF7AE655207A54
:1022E000FDDA145595647FAA368900040084AAB0EB
:1022F000BBFEFF2AD7514C913DF6B74B0450112A33
:1023000088DA24700200B4A104AEDFFFEF7BC9229B
:10231000842EBFF521424A8CBF882B82084120447D
:1023200034A7FBEF7575AD24900236D5768A32A2BC
:102330005152A5383A2200062A822BBF7DDEBEFF0D
:10234000885510BFBFBB29C909461DD00FAC8120DD
:10235000008029BDEDFFFBEBA92304421AD6EE480D
:10236000282AB2AE190AB6A804002A855EFFAFFA81
:10237000BADF28D4289FF7BB49059A5A574846F533
:1023800009228001756FFFFAF6DB6AAA4104557ACB
:10239000DB246A214928B1035EE44024AD2BDEDB57
:1023A000FFAF6DD444145235AFEE91104F535DC260
:1023B00011EA89100212D6FBFED7EBAB2D1562098C
:1023C0002EFB5B088D515886E888F6A8850084AB03
:1023D0005EAFFB5FE9F9653285375FEBA4844904A2
:1023E000B30A407B8A408055556FF75F1BEC192874
:1023F000404015EABA4256ACD61EE5093CE4102529
:102400000A53B57AF5CFF7D2128A2A37776F14A11B
:102410004310AF2A242F19491051AC5BCDBE15FAD9
:102420002954A081169DB9425428A23E958215C414
:1024300004001453AD76AAAABDE14A14142BEBCEC6
:10244000525106912AD4A18F75A2288B38AD5BF327
:1024500097FED52502821AAD738928B024900448CE
:10246000A14A0884448DA5AD56896F895024511620
:10247000DAAD221202A00511849EB4A00112625AA4
:1024800056AF57BF125410042B6BD6088CA916A157
:102490005C44CB4B2550915D4BDABF60EB0A56058F
:1024A0005202B45B454609401546226AE9200809F4
:1024B0000554CFEFB67EA2012100135B4908A04569
:1024C0001288298885054A42A4EA5B75FDE15A19FC
:1024D000B090554DABBD2113288822AA6D56A82077
:1024E000101215555FB7B2BD24844500AAB5C69435
:1024F0004880840D2B214AAA054509A555EFFBD834
:102500004884801020394EF302205445C5A52AAADC
:1025100021501084B57EFDFDEA58A48889062D6BF4
:10252000792D1481105A599519480042524AA7F73B
:102530007FC51252000491529BB88042442920A2C8
:10254000695225121029B7DDBFEFA9A089515004A7
:10255000AD2A7E552021022E2D145910820904A97E
:1025600076F7FB8C2A2808021180ABAE0414805247
:102570002321562484208424AD1B7B7D0781880081
:102580002846A089B76282288994AD415150022023
:102590009292F7FFDF21444844812C0A2C5B88206B
:1025A000020020909D72809008056D5FDFFD8082A3
:1025B000921240082025B5548A904AAA5642282AE9
:1025C00011029095556DFC40604100111515124F98
:1025D00004404902091152A50004484A57D7F6B0F1
:1025E00028052004006080497551020029402428F4
:1025F000C108800101AA7DBFF1041040A0954A02E4
:102600000516002812002A8943588020282A359769
:10261000FFD44001120800895520AB9482814A7B87
:10262000A429C4921502A092DADBE012800004898A
:10263000A4008A00425010013DF58A608000503DA0
:10264000596FFDC84002810003AAAA41EA2804800C
:1026500028DB5BA35411020A8C8694AF4210501001
:102660001023E294AC17848012426CA5CB8104083D
:10267000A057596FFDC0850000808694A152C842C2
:10268000508929AEB66AB800424AABCA3156F0202A
:102690002004084FF29D2A37500C4001C7D74689C5
:1026A000242025FFE91D7B78120200842FDAC5ABB8
:1026B0009401412A4AE27A77520202009BFEC3AE9D
:1026C0008E092800111EE53AB4D214288121AFAB3F
:1026D0008AA80888D7EEFFFC517F800010001934CB
:1026E000C54B2D450A0815A2FDEAA5004002FFBF13
:1026F000BF7FF7C20282003BD2356AA61080A505D3
:10270000CB568D10840452ADDFFFFFFBC120108437
:1027100063AD952AB22449001C295DE6C400410B33
:10272000777BAFDAFEA01400027594AAAA49822230
:102730005483C6B76552220012ADFDFF7FAFE8009B
:102740004120D2D54AA5922210008D7295D629003B
:10275000280496BDFBDFF5E4801010E2D2AA905564
:1027600001044422995ECB24040524D6FF6FFDFFAB
:1027700060040004DF54AADD16504A208146A5AD4E
:1027800080A08002295DFFEF7DE220808E5DEAAAB5
:10279000824905008420945AA76A02489147AFBD38
:1027A000FFEFB800021B2FB5256DA650522209D3AA
:1027B0000B448820040814F6F76BF7FC109005B75B
:1027C000F09120530A08104459555684000104968C
:1027D000AB7FFEFEF60002859DBE54B50920A282A5
:1027E00021C94BA5628888504A5ADBFFBBBE8800CE
:1027F00026EFFFAB4A529500288096244688024374
:102800000115256DB5DFF7009042A77B8048A440F5
:10281000550410C913A32240015442913EFFEDFD1F
:10282000A0002173BDD52A912A008088CD8895917A
:102830001090562849977FFEBF10081139FFD10824
:10284000AC0152544022662348000009822A69AD37
:10285000D7568041448DDECAD65294090109B491FD
:10286000751244882228A496FF79FB4A000084FB55
:10287000D01109A140544252AC95D00005028225E6
:102880002205CC2C001150007DCE49441835021190
:102890005485450A4940A0B51191B5672A8880083A
:1028A000883EA24152850228892A62D65000120031
:1028B0005084484AA89422008420D5152A295058CB
:1028C00080200128498940005515552555104100A3
:1028D0000411013F925086090A2A849CAA444409A3
:1028E0001200948292454C511010802A954914A0F0
:1028F0000480005042092B50A0808805684851246C
:1029000010800000005F849256900911021DA444BB
:102910008408112540A5230A4240009A25093391D5
:1029200021120240440900511251228400141488DB
:10293000409904000000244EF484488004228095CD
:10294000088244002029424AA92A445004408111A7
:102950003BFE55222221000010E45122488A8029A2
:102960000484002208400020000D7F0499088000A4
:10297000400611041101001440A052AA9144012202
:1029800000816BEBD04400001008108A11442852DB
:10299000010A01090008100800842815BFA51200CB
:1029A000080200894A802104008020A80154820A7C
:1029B000001020085EDAD141004480000940909068
:1029C0000152511409484211000100040202FF089B
:1029D000280900108804AC4A004800044120001473
:1029E000404408009000550AD284000000020051C3
:1029F00000410214912492A8008A000114000908E1
:102A0000F50452800000008014440821400490081E
:102A100004800122400001008A085208004211008F
:102A2000000920A400148044850208400000000032
:102A3000000125094608084000001442012800242E
:102A4000102048200000010929082A900090000069
:102A500000082403080000A4808104208100802451
:102A60002000410022524A010000010001880008B4
:102A700002282885144880240000000002910820C4
:102A80004000120002004548022085084000002056
:102A900000010200009080820A08244008001120F2
:102AA00001084400562084000400081048444A628B
:102AB00055510100004001000A04401014808A10A2
:102AC0002440020000010002B42004000010002095
:102AD0000081400209404A808500010081080024ED
:102AE0002AA811500000000200000C4440040A20F3
:102AF00048000440400000000002B5140A008904A8
:102B000020000001000920208B50412008000841CE
:102B10001001295880A40000000000400224800118
:102B20000A2422088000004100000004AC2210505A
:102B300000001120108100400001929E002102003F
:102B4000042002888415110A00800000080000A8F3
:102B50002521488A570010004022880000028C0876
:102B6000A2040224000008000008000269F98000A5
:102B700000080820200040454508001080000100A2
:102B8000004500040894AFE40124005348004008C5
:102B900034282200000108000410204AA14045EE1C
:102BA000A2800201480605380508028801000002DB
:102BB000000100040000082B7BD01000002DB0AFF6
:102BC000C800095245200040000080000254002146
:102BD00015EEF000012AA085337800A00810000847
:102BE00000809000041002A88852BBC882A25496AC
:102BF000505EA6400642A200041040000000000003
:102C0000040206DD407B6912424A6BF00801280885
:102C1000080000000020800212000856DF7F5D657A
:102C200049292A7EB802508544208000000800020D
:102C30002000424085692BABB8249485DBD4000A80
:102C40002029000088110102000800110012B6D6E8
:102C5000D5529142306F6045409544000004008099
:102C60000020024080004A917B7FDA4CA915FBE0EE
:102C70002048002204100000000000000228880202
:102C8000D529AAD1020514DAA202052A10100001E2
:102C900020012002002012022D09D6B76C50A94B4A
:102CA0006FC010A041040080840880010000004033
:102CB0000081262AD9B10A22A1BEC4450A08A10072
:102CC000000280400010800014801481AD6EAC4181
:102CD0000BD5EBA020714428009410480000002080
:102CE0002000008208A56B5228A8D2BD85151A02C3
:102CF000481420811008410004000812148656B5BB
:102D0000A1021769EFC0004548854102280121084A
:102D100000000082408000894A485154BFB4E25507
:102D20001212200890049088009001000000420ACE
:102D30004255A2001BA5B770005140144002020882
:102D40000550020050000011245140889108BDD95F
:102D5000DA95082A420248A8D26A04080000102026
:102D600040010C9A00442765567840250108082246
:102D7000451594B040880080040204A2014220500E
:102D80009AAAAC14909490800034D4969A000008CB
:102D90000401100080A800042D4A496E025010441E
:102DA00014254A5244480000000000C40054002288
:102DB00002004AAA6A910948120092AA8B320120A5
:102DC00008000084021508828090252545361448A5
:102DD00002C04245126954A401010084000880A287
:102DE00028040110101094412129141934CB5542A4
:102DF000100000484040000010000040028AA4106B
:102E0000102CA680242E0008000000205C01000089
:102E1000DC0100086C2E00085C010020B4A000005A
:102E2000D4170008320182101324F494804840948F
:102E3000404880091618C1620A2B0801035A020E85
:102E4000013F3A22012909131741133220898611C3
:102E50009A80869A40181109149E11620F2A01F374
:0C2E60000148799FE7021741B0322800BA
:0400000508000131BD
:00000001FF
